:100000000C943E000C9455000C9455000C94550033
:100010000C9455000C9455000C9455000C9455000C
:100020000C9455000C9455000C9455000C945500FC
:100030000C9455000C9455000C9455000C945500EC
:100040000C9455000C9455000C9455000C945500DC
:100050000C9455000C9455000C9455000C945500CC
:100060000C9455000C9455000C9455000C945500BC
:100070000C9455000C9455000C94550011241FBE8F
:10008000CFEFD8E0DEBFCDBF0E9459000C944A00EC
:04009000F894FFCF12
:10009400EC010E945B000E945A00CE010E945C00A9
:0600A400CE010E9457008E
:0400AA000C940000B2
:0400AE000E94480064
:0200B200FFCF7E
:0200B4000895AD
:0200B6000895AB
:0200B8000895A9
:00000001FF
