:100000000C943E000C94DC040C9492050C945B0060
:100010000C945B000C945B000C945B000C945B00F4
:100020000C945B000C945B000C945B000C945B00E4
:100030000C945B000C945B000C945B000C945B00D4
:100040000C945B000C945B000C945D000C945B00C2
:100050000C945B000C945B000C945B000C945B00B4
:100060000C945B000C945B000C945B000C945B00A4
:100070000C945B000C945B000C945B0011241FBE7D
:10008000CFEFD8E0DEBFCDBF11E0A0E0B1E0E2E10C
:10009000F3E302C005900D92AE3CB107D9F722E020
:1000A000AEECB1E001C01D92A631B207E1F70E94AB
:1000B00029190C9487190C9400001F920F920FB607
:1000C0000F9211248F939F93EF93FF9383E686BD46
:1000D000E2E0F2E080818F5F8083843670F11082ED
:1000E00081E08093CF0181818F5F81839091CE01E8
:1000F000992319F091509093CE019091EF0199239B
:1001000019F091509093EF019091EE01992319F01D
:1001100091509093EE018C3380F0E2E0F2E0118296
:1001200082818F5F82838C3340F0128283818F5F64
:100130008383883110F010920502FF91EF919F9117
:100140008F910F900FBE0F901F90189520E00FC059
:10015000822F022E000C990BFC01E751FE4F3081DB
:10016000FC01E65FFE4F8081381305C02F5F24300D
:100170007CF381E0089580E008958091EF019DEC8B
:10018000899F812D11248695869586950895809165
:10019000EF019DEC899F912D11249695969596954A
:1001A000990F292F220F220F920F891B0895E2EF3A
:1001B000F1E08DE480838FE6818384E6828385E7A6
:1001C00083838CE6848385E6858380E2868399E653
:1001D000978393E79087818795E4928792E5938749
:1001E00094872FE42587968787870895E2EFF1E0CB
:1001F0008DE480839FE6918384E6828385E7838311
:100200008CE6848325E6258320E2268339E637833E
:1002100033E7308721872EE62287938792E79487FA
:100220009DE6958791E696878787089520E030E0E0
:1002300080E008C0E82FF0E0EF51FE4F9081290FD9
:10024000311D8F5F8430B0F3232B11F081E00895CE
:1002500080E008959091C00095FFFCCF8093C60088
:1002600008951F93CF93DF93CDB7DEB765970FB691
:10027000F894DEBF0FBECDBF85E1EEE0F1E0DE0118
:10028000119601900D928A95E1F7E2E0F2E0238168
:100290008DEC289F912D112496959695969530E397
:1002A000390F3987990F392F330F330F930F291BCC
:1002B000205D2A872281289F912D1124969596955D
:1002C000969530E3390F3C87990F392F330F330F51
:1002D000930F291B205D2D879181989F812D1124DB
:1002E00086958695869520E3280F2F87880F282FDF
:1002F000220F220F820F981B905D988B10E00AC08E
:10030000E1E0F0E0EC0FFD1FE10FF11D80810E94A4
:100310002A011F5F1431A0F365960FB6F894DEBF73
:100320000FBECDBFDF91CF911F910895662369F075
:1003300042B121E030E0B90102C0660F771F8A9513
:10034000E2F7CB01842B82B9089542B121E030E07D
:10035000B90102C0660F771F8A95E2F7CB0180953D
:10036000842382B90895882329F061E081E00E9406
:100370009601089560E081E00E9496010895882327
:1003800029F061E082E00E949601089560E082E039
:100390000E9496010895882329F061E083E00E947D
:1003A0009601089560E083E00E94960108958823F5
:1003B00029F061E084E00E949601089560E084E005
:1003C0000E9496010895882329F061E080E00E9450
:1003D0009601089560E080E00E949601089581E012
:1003E0000E94E3012FE788E391E021508040904094
:1003F000E1F700C0000080E00E94E3010895662359
:1004000069F045B121E030E0B90102C0660F771F05
:100410008A95E2F7CB01842B85B9089545B121E097
:1004200030E0B90102C0660F771F8A95E2F7CB0171
:100430008095842385B9089585B18F6085B960E082
:1004400080E00E94FF0182E08A95F1F700C01D99CB
:100450000CC08FE39CE90197F1F700C000001D9BE1
:10046000FECF0E94EF0181E308951E990CC08FE337
:100470009CE90197F1F700C000001E9BFECF0E948F
:10048000EF0182E308951F990CC08FE39CE9019767
:10049000F1F700C000001F9BFECF0E94EF0183E335
:1004A000089585B18F6085B960E081E00E94FF0109
:1004B00092E09A95F1F700C01D990CC08FE39CE97A
:1004C0000197F1F700C000001D9BFECF0E94EF01D5
:1004D00084E308951E990CC08FE39CE90197F1F71E
:1004E00000C000001E9BFECF0E94EF0185E308952F
:1004F0001F990CC08FE39CE90197F1F700C0000041
:100500001F9BFECF0E94EF0186E3089585B18F60A7
:1005100085B960E082E00E94FF0192E09A95F1F7D0
:1005200000C01D990CC08FE39CE90197F1F700C052
:1005300000001D9BFECF0E94EF0187E308951E99E6
:100540000CC08FE39CE90197F1F700C000001E9BEF
:10055000FECF0E94EF0188E308951F990CC08FE33E
:100560009CE90197F1F700C000001F9BFECF0E949D
:10057000EF0189E3089585B18F6085B960E083E07C
:100580000E94FF0192E09A95F1F700C01D990CC0FE
:100590008FE39CE90197F1F700C000001D9BFECF9F
:1005A0000E94EF018AE208951E990CC08FE39CE936
:1005B0000197F1F700C000001E9BFECF0E94EF01E3
:1005C00080E308951F990CC08FE39CE90197F1F730
:1005D00000C000001F9BFECF0E94EF0183E2089540
:1005E0008FEF089585B18F6085B960E080E00E944B
:1005F000FF0182E08A95F1F700C005990CC08FE3F6
:100600009CE90197F1F700C00000059BFECF0E9416
:10061000EF0181E3089506990CC08FE39CE90197EF
:10062000F1F700C00000069BFECF0E94EF0182E3BD
:10063000089507990CC08FE39CE90197F1F700C07A
:100640000000079BFECF0E94EF0183E3089585B170
:100650008F6085B960E081E00E94FF0192E09A9589
:10066000F1F700C005990CC08FE39CE90197F1F701
:1006700000C00000059BFECF0E94EF0184E30895B7
:1006800006990CC08FE39CE90197F1F700C00000C8
:10069000069BFECF0E94EF0185E3089507990CC0E9
:1006A0008FE39CE90197F1F700C00000079BFECFA4
:1006B0000E94EF0186E3089585B18F6085B960E0FF
:1006C00082E00E94FF0192E09A95F1F700C005993F
:1006D0000CC08FE39CE90197F1F700C00000059B77
:1006E000FECF0E94EF0187E3089506990CC08FE3C7
:1006F0009CE90197F1F700C00000069BFECF0E9425
:10070000EF0188E3089507990CC08FE39CE90197F6
:10071000F1F700C00000079BFECF0E94EF0189E3C4
:10072000089585B18F6085B960E083E00E94FF0184
:1007300092E09A95F1F700C005990CC08FE39CE90F
:100740000197F1F700C00000059BFECF0E94EF016A
:100750008AE2089506990CC08FE39CE90197F1F7AE
:1007600000C00000069BFECF0E94EF0180E30895C9
:1007700007990CC08FE39CE90197F1F700C00000D6
:10078000079BFECF0E94EF0183E208958FEF08954B
:10079000662369F048B121E030E0B90102C0660F7C
:1007A000771F8A95E2F7CB01842B88B9089548B169
:1007B00021E030E0B90102C0660F771F8A95E2F7A9
:1007C000CB018095842388B90895CF93C82F61E029
:1007D00081E00E94C8038BB18F708BB98BB19C2FC5
:1007E000907F892B8BB961E080E00E94C8038FE97C
:1007F0009FE00197F1F700C0000060E080E00E94F8
:10080000C8038BB18F708BB92BB130E1C39FC0018E
:100810001124822B8BB961E080E00E94C8038FE92C
:100820009FE00197F1F700C0000060E080E00E94C7
:10083000C803CF910895CF93C82F60E081E00E9454
:10084000C8038BB18F708BB98BB19C2F907F892B94
:100850008BB961E080E00E94C8038FE99FE00197B7
:10086000F1F700C0000060E080E00E94C8038BB197
:100870008F708BB92BB130E1C39FC0011124822B43
:100880008BB961E080E00E94C8038FE99FE0019787
:10089000F1F700C0000060E080E00E94C803CF9143
:1008A0000895CF9380E80E941B04C0E008C0EC2F9D
:1008B000F0E0EA5FFD4F80810E94E503CF5FC03129
:1008C000B0F3CF910895CF9380EC0E941B04C0E059
:1008D00008C0EC2FF0E0EE50FE4F80810E94E5034F
:1008E000CF5FC031B0F3CF910895882329F061E044
:1008F00082E00E94C803089560E082E00E94C8037D
:100900000895882329F061E083E00E94C8030895D8
:1009100060E083E00E94C803089581E08093D101E4
:100920000E94CB0180E00E94D70180E00E94BF01BD
:1009300080E00E94750480E00E94810480E00E94B3
:10094000B30180E00E94E301089581E08093D1012A
:100950000E94CB0180E00E94D70180E00E94BF018D
:1009600080E00E94750480E00E94810480E00E9483
:10097000B30180E00E94E30183E08093EF010895DA
:1009800081E08093D10180E00E94CB0181E00E9450
:10099000D70180E00E94BF0181E00E94750480E0E1
:1009A0000E94810481E00E94B30180E00E94E30183
:1009B00085E08093EF0108951F920F920FB60F927A
:1009C00011240F931F932F933F934F935F936F9334
:1009D0007F938F939F93AF93BF93EF93FF93CF93A7
:1009E000DF93CDB7DEB76E97DEBFCDBF8091D50167
:1009F000882321F081E08093D3015EC082E0809360
:100A0000F1010E94C00481E08093D0011092F001B6
:100A1000E6E0F2E08DE38083818382839BE593832C
:100A200093E4948391E6958395E7968323E7278360
:100A3000208749E641873FE632879EE693875DE55A
:100A40005487858786878787E2EFF1E084E4808397
:100A50003183328382E7838380E2848339E4358380
:100A6000268387838FE4808780E7818785E6828776
:100A700093879487458796870E9463040E94510458
:100A80000E9431018EE1E3E2F1E0DE011196019076
:100A90000D928A95E1F700E010E00BC0E1E0F0E094
:100AA000EC0FFD1FE00FF11F80810E942A010F5FF4
:100AB0001F4F0D31110594F36E960FB6F894DEBFFB
:100AC0000FBECDBFDF91CF91FF91EF91BF91AF915D
:100AD0009F918F917F916F915F914F913F912F9156
:100AE0001F910F910F900FBE0F901F90189581E0EE
:100AF0008093D1010E94CB0180E00E94D70181E068
:100B00000E94BF0180E00E94750480E00E94810481
:100B100080E00E94B30180E00E94E3018AE08093BC
:100B2000EF0108951F920F920FB60F9211240F93A9
:100B30001F932F933F934F935F936F937F938F9365
:100B40009F93AF93BF93EF93FF93CF93DF93CDB773
:100B5000DEB76E97DEBFCDBF8091D501882321F02F
:100B600081E08093D40162C083E08093F1010E9410
:100B7000770581E08093D0011092F001E6E0F2E089
:100B80009DE3908391838BE5828385E583832EE6C5
:100B9000248325838FE6868332E737834DE64087BB
:100BA00041E641874CE64287438749E744874DE564
:100BB000458796879787E2EFF1E094E490838183FD
:100BC000828333839AE3948399E6958333E736836C
:100BD00030E237833CE43087818783E682878BE687
:100BE000838784879587268787E687870E946304A3
:100BF0000E9451040E9431018EE1E1E4F1E0DE0146
:100C0000119601900D928A95E1F700E010E00BC07B
:100C1000E1E0F0E0EC0FFD1FE00FF11F80810E948A
:100C20002A010F5F1F4F0D31110594F36E960FB619
:100C3000F894DEBF0FBECDBFDF91CF91FF91EF9152
:100C4000BF91AF919F918F917F916F915F914F91E4
:100C50003F912F911F910F910F900FBE0F901F90FA
:100C600018950F931F93CF93DF93CDB7DEB7A5975A
:100C70000FB6F894DEBF0FBECDBF11E01093D101C7
:100C80001093D00181E00E94CB0180E00E94D70147
:100C900080E00E94BF0180E00E94750480E00E9415
:100CA000810480E00E94B30180E00E94E3018EE1B4
:100CB0008093EF011093D001E6E0F2E080E28083C0
:100CC00095E491832DE42283938322E5248327E412
:100CD000258396831EE4178393E4908799E5918793
:100CE000828783878487858793E7968787870E9493
:100CF0005104E2EFF1E083E5808397E7918389E691
:100D0000828384E7838323E6248388E6858384E5DE
:100D100086838FE687833CE43087818722872BE6B2
:100D2000238714878587968781E287870E946304DB
:100D30000E94310185E2EFE5F1E0DE0111960190BC
:100D40000D928A95E1F700E010E00BC0E1E0F0E0E1
:100D5000EC0FFD1FE00FF11F80810E942A010F5F41
:100D60001F4F0432110594F3A5960FB6F894DEBF19
:100D70000FBECDBFDF91CF911F910F9108950F93BB
:100D80001F93CF93DF93CDB7DEB7A5970FB6F89437
:100D9000DEBF0FBECDBF11E01093D1011093D00183
:100DA00080E00E94CB0181E00E94D70180E00E9498
:100DB000BF0181E00E94750481E00E94810481E00E
:100DC0000E94B30180E00E94E3018FE08093EF0175
:100DD0001093D001E6E0F2E080E2808393E5918316
:100DE00029E52283938394E5948395E495832DE408
:100DF0002683878326E4208721E4218729E422872C
:100E00002CE4238725E5248722E525879687878795
:100E10000E945104E2EFF1E08DE3808381838283BD
:100E20008383848385838683878380878187828782
:100E3000838784878587868787870E94630485E206
:100E4000E4E8F1E0DE01119601900D928A95E1F758
:100E500000E010E00BC0E1E0F0E0EC0FFD1FE00F60
:100E6000F11F80810E942A010F5F1F4F043211057C
:100E700094F3A5960FB6F894DEBF0FBECDBFDF91F9
:100E8000CF911F910F910895DF92EF92FF920F93F0
:100E90001F93CF93DF9381E08093D201E6E0F2E0ED
:100EA00081E4808383E681830F2EF4E7DF2EF02D2B
:100EB000D28289E6838386E78483D5E6D5830F2EA5
:100EC000F3E4EF2EF02DE6820F2EFFE6FF2EF02D3D
:100ED000F78204E60087D1871AE31287C0E2C3874E
:100EE000AAE0B1E08C91805D848711968C91119776
:100EF000805D858712968C911297805D8687139608
:100F00008C91805D87870E945104E2EFF1E085E4D7
:100F100080838EE68183D282D38382E78483E582D5
:100F2000F6820783D0871187C287C387C487C587A6
:100F3000C687C7870E946304DF91CF911F910F91ED
:100F4000FF90EF90DF90089581E08093D201E6E07A
:100F5000F2E08DE4808385E681838EE6828385E7F7
:100F6000838330E23483A2E0B2E013962C9113978E
:100F70008DEC289F912D112496959695969540E39A
:100F8000490F4583990F492F440F440F940F291B94
:100F9000205D268398E6978312962C911297289FBE
:100FA000912D112496959695969540E3490F40878B
:100FB000990F492F440F440F940F291B205D21875F
:100FC0009DE6928711969C91989F812D112486957C
:100FD0008695869520E3280F2387880F282F220FD8
:100FE000220F820F981B905D948783E78587368751
:100FF00037871092D6010E9451040895CF930E9422
:101000001C02C82F8091F101811152C081E00E9421
:10101000CB0180E00E94D70180E00E94BF0180E008
:101020000E94750480E00E94810480E00E94B30168
:1010300080E00E94E30190ED9C0F9A3090F4809143
:10104000E001E82F082E000CFF0BE751FE4F9083C4
:101050008F5F8093E001853009F0F5C01092E001C8
:10106000F2C0CA3219F41092E001EDC0C33209F0A7
:10107000EAC08091F001843009F4E5C08091E0017C
:10108000843069F41092E0010E94A600882309F4DC
:10109000DAC084E08093F1010E943106D4C081E07F
:1010A0008093F1010E94A50483E08093EF01CBC0FF
:1010B000813049F50E94CB0180E00E94D70180E099
:1010C0000E94BF0180E00E94750480E00E948104BC
:1010D00080E00E94B30180E00E94E3018091EF0173
:1010E000811105C01092F1010E948D04ACC0809165
:1010F0000202823320F480E00E94E301A4C081E078
:101100000E94E301A0C08230C1F48091EF018111FF
:1011100006C01092F1010E948D041092D0018091BE
:10112000D001811190C08091F00181118CC082E0CA
:101130008093F0010E94A40786C08330C1F480919F
:10114000EF01811106C01092F1010E948D041092EE
:10115000D0018091D001811176C08091F001811180
:1011600072C082E08093F0010E94A4076CC08430BA
:1011700009F041C08091EF0181110BC01092D001A4
:1011800085E08093F1018FE08093EF010E94BF061C
:101190005AC0809102029DEC899F812D112483FF0A
:1011A0000AC080E00E94E30181E00E94750481E0B2
:1011B0000E94B30109C081E00E94E30180E00E9427
:1011C000B30180E00E9475048091CF018823D9F19A
:1011D0008CE80E941B040E94BD00805D0E94E50314
:1011E0008DE80E941B040E94C700805D0E94E503F9
:1011F0001092CF0128C0853031F58091EF01811127
:101200000CC01092D0011092F1010E948D040E9436
:10121000A40781E08093D20116C08091CF0188237A
:1012200091F087EC0E941B040E94BD00805D0E942B
:10123000E50388EC0E941B040E94C700805D0E94A9
:10124000E5031092CF01CF91089581E08093D20100
:10125000E6E0F2E082E5808325E6218393E792834E
:10126000238334E7348380E2858343E5468349E77B
:1012700047839087318722873DE6338784874FE312
:10128000458786878787E2EFF1E040E5408342E7C4
:101290004183228393839483858393E29683878318
:1012A00093E690879FE691879EE6928796E69387DE
:1012B00099E694874587368787870E9463040E9452
:1012C000510408951F93CF93DF9381E08093D5015C
:1012D0002FEF84E39CE0215080409040E1F700C074
:1012E0000000E6E0F2E084E5808385E6818393E711
:1012F000928324E7238320E224833BE4358386839F
:1013000039E7378330E53087218729E422872EE6C5
:101310002387948799E6958794E69687878710E0D8
:10132000D0E050C084E08093CE01E2EFF1E080E5B0
:10133000808382E7818335E6328323E72383248316
:1013400090E295838EE28783808781878287938767
:101350002487358783E686879787DA3029F48AE2FF
:101360008093F801CAE20BC0DB3029F483E280935A
:10137000F801C3E204C0C0E3CD0FC093F8010E949E
:1013800051040E94630419C08091CF01813041F45F
:101390008BEC0E941B048091CE01805D0E94E503CE
:1013A0008091CE01811109C01F5F81E08093E1012E
:1013B0000E94EF010E94EF0104C00E94F202C813D4
:1013C000E3CFDF5FDC3008F4ADCFE6E0F2E084E5A8
:1013D000808385E6818393E7928324E7238330E249
:1013E00034834BE64583868349E7478330873FE470
:1013F000318735E732872387948799E6958794E686
:1014000096878787D0E050C084E08093CE01E2EFDA
:10141000F1E080E5808382E7818335E6328323E74C
:101420002383248390E295838EE28783808781875C
:10143000828793872487358783E686879787DA3084
:1014400029F48AE28093F801CAE20BC0DB3029F468
:1014500083E28093F801C3E204C0C0E3CD0FC093E0
:10146000F8010E9451040E94630419C08091CF01C9
:10147000813041F48BEC0E941B048091CE01805D91
:101480000E94E5038091CE01811109C01F5F81E0B8
:101490008093E2010E94EF010E94EF0104C00E94CC
:1014A0001C02C813E3CFDF5FDC3008F4ADCF10922D
:1014B000D4011092D301E6E0F2E080E280838183E0
:1014C00094E5928325E4238323E52483958386830F
:1014D000278327E5208729E42187928793E4938750
:1014E00098E49487858786878787E2EFF1E095E522
:1014F00090839EE691839CE692839FE6938393E696
:1015000094832BE62583868344E7478325E620875B
:1015100033E7318742878387848735872687978794
:101520000E9451040E94630485E08093CE011BC099
:101530008091CF01813051F41092CF018BEC0E9449
:101540001B048091CE01805D0E94E5038091CE0155
:10155000811109C01F5F81E08093E3010E94EF01C8
:101560000E94EF0104C08091D301882309F3E6E0D3
:10157000F2E080E28083818394E5928325E42383F3
:1015800023E5248395838683278327E5208729E421
:101590002187928723E4238728E424878587868709
:1015A0008787E2EFF1E02CE420832FE6218323E616
:1015B00022833BE633838483958395E6968333E7E2
:1015C000378344E74087818782878387848735878D
:1015D000968727870E9451040E94630485E08093C8
:1015E000CE011BC08091CF01813051F41092CF0108
:1015F0008BEC0E941B048091CE01805D0E94E5036C
:101600008091CE01811109C01F5F81E08093E301C9
:101610000E94EF010E94EF0104C08091D401882351
:1016200009F31092D50181E08093D201812FDF91DF
:10163000CF911F9108951F93CF93DF9381E0809303
:10164000D501E6E0F2E080E28083818354E55283B5
:1016500045E6438323E7248394E79583868334E434
:10166000378339E63087218760E762876CE66387D6
:1016700061E6648779E7758786878787E2EFF1E01F
:10168000808373E571839283638362E764839583C8
:1016900086835783408721879287938734879EE686
:1016A000958797E6968787870E9451040E94630476
:1016B0002FEF80E792E0215080409040E1F700C09A
:1016C00000008DEC0E941B048EE20E94E5038FE374
:1016D0009CE90197F1F700C000008EE20E94E5034B
:1016E0009FE728E381E0915020408040E1F700C06F
:1016F00000008EE20E94E5039FEF22E587E0915013
:1017000020408040E1F700C0000081E00E941B04FF
:1017100080E80E941B04C0E00DC08FEF0E94E5032B
:101720009FE728E381E0915020408040E1F700C02E
:101730000000CF5FC03188F380EC0E941B04C0E042
:101740000DC08FEF0E94E5039FE728E381E09150F1
:1017500020408040E1F700C00000CF5FC03188F337
:101760009FEF24E38CE0915020408040E1F700C0DF
:101770000000E6E0F2E060E5608322E7218355E6C1
:10178000528393E79383948380E285833AE236839E
:10179000878339E6308746E64187828735E4338799
:1017A00032E5348735877FE476873787E2EFF1E0EB
:1017B0006083218352839383948393E2958386830A
:1017C00099E49783408781878EE482878FE68387B9
:1017D00024878DE6858781E686878CE687870E9449
:1017E000EF010E9463040E94510485E08093CE01C2
:1017F000D1E010E00E94F202C82F8091CE01811149
:101800000DC01F5FE1EEF1E0D1E0D083D3830E94F1
:10181000EF010E94EF01D093D201D0E0CA3239F437
:101820001F5F81E08093E4018093D201D0E0C33256
:1018300031F41092E40181E08093D201D0E0D11123
:10184000D9CF1092D501812FDF91CF911F910895AB
:101850000F931F93CF93DF93CDB7DEB7A4970FB647
:10186000F894DEBF0FBECDBF0E94F202182F8F3F4B
:1018700011F01092D0011F3F71F48091D2018823A2
:1018800019F01092D2011EEF8091CF01882319F038
:101890001092CF011EEF8091D001813011F40C9491
:1018A000AC161F3F11F40C94AC168AE08093EE0145
:1018B0008091F001811148C0E6E0F2E080E280838F
:1018C00059E451833EE6328399E6938324E72483E7
:1018D000958341E646836CE6678340876AE76187C4
:1018E0004287238794874FE6458736878787E2EFCD
:1018F000F1E041E340834EE241835283338394839A
:1019000025838683878380878187828782E3838795
:1019100044878FE4858786E6868787870E945104FF
:101920000E946304113339F481E08093F0010E9436
:1019300044070C94AC16123311F00C94AC1688E0EA
:101940000E941B040C94AC16813009F082C090ED0B
:10195000910F9A30D8F48091DF01843039F0E82F6C
:10196000082E000CFF0BE250FE4F1083E82F082ECC
:10197000000CFF0BEB51FE4F90838F5F8093DF01D4
:10198000853009F054C01092DF0151C0133209F0C4
:101990004EC08091DF01843009F049C0A5EEB1E06E
:1019A0005C91EAE0F1E0508311964C9111974183EC
:1019B00012963C911297328313962C912383E6E082
:1019C000F2E081E4808383E6818304E7028389E691
:1019D000838386E7848395E69583B3E4B683AFE695
:1019E000A78374E6708791876AE3628780E28387C2
:1019F000505D5487405D4587305D3687205D278781
:101A0000E2EFF1E025E420832EE621830283938335
:101A100022E72483B583A6837783908761878287B3
:101A2000838784878587868787871092DF010E9456
:101A300051040E9463041A3211F00C94AC1682E037
:101A40008093F00181E08093D2010E94A4070C945E
:101A5000AC16823009F0A1C1A2E0B2E013962C913D
:101A60001397E6E0F2E08DEC289F912D11249695D6
:101A70009695969530E3390F3583990F392F330FAB
:101A8000330F930F291B205D268312962C911297FA
:101A9000289F912D112496959695969530E3390FB0
:101AA0003087990F392F330F330F930F291B205D88
:101AB000218711969C91989F812D1124869586955A
:101AC000869520E3280F2387880F282F220F220FC7
:101AD000820F981B905D94870E941601882319F04D
:101AE0008FEF809315028091D60181111EC0E2EF25
:101AF000F1E081E380832EE2218385E4828384E622
:101B0000838399E6948384E7858330E23683378341
:101B100032E33087218723E52287838722E72487E2
:101B2000958793E696878787A1C08130F9F4E2EF25
:101B3000F1E080E2808393E391839EE2928394E5D7
:101B4000938395E6948323E7258324E7268387837D
:101B50002BE42087918799E7928790E5938791E618
:101B6000948794E695878687878780C0823001F5C1
:101B7000E2EFF1E080E2808394E391839EE292833E
:101B800094E5938395E6948393E7958324E72683EE
:101B9000878324E4208729E62187928790E793872B
:101BA0009CE6948791E6958799E7968787875EC03C
:101BB0008330F9F4E2EFF1E080E2808395E39183F2
:101BC0009EE2928399E493839EE6948326E625839E
:101BD0002FE6268332E737833DE6308731E63187CB
:101BE00034E7328739E63387248795878687878766
:101BF0003DC08430F1F4E2EFF1E086E380838EE2D1
:101C0000818330E2328383E4838322E7248385E681
:101C1000858391E6968394E797838087318732E5C1
:101C20003287838780E784878FE685872687978733
:101C30001DC08530D9F4E2EFF1E080E2808397E3C4
:101C400091839EE2928392E5938395E6948323E7C2
:101C50002583968334E737838087218749E7428746
:101C60002387348795879DE6968787870E9451044E
:101C70000E946304113339F481E08093F0010E94E3
:101C800044070C94AC16123341F483E08093F001C6
:101C900081E08093D2010C94AC161A3251F48091F9
:101CA000D60181508093D60181E08093D2010C94BB
:101CB000AC16133271F48091D6018F5F8093D601F8
:101CC000863010F01092D60181E08093D2010C94FE
:101CD000AC16133399F4E1EEF1E010821182128216
:101CE0000E9462099091ED01890F8093ED0182E0DD
:101CF0008093F0010E94A4070C94AC16143381F475
:101D00001092E4010E941B0B9091ED01890F8093CA
:101D1000ED0182E08093F0010E94A4070C94AC16C0
:101D2000153351F485E08093F0011092D60181E0E3
:101D30008093D2010C94AC16163331F586E0809373
:101D4000F0011092D60181E08093D201E2EFF1E040
:101D500089E580838FE6818395E7928392E7938379
:101D600093E49483858384E6868385E687838AE388
:101D7000808780E2818782878387848785878687BB
:101D800087871092D701E8C7173309F0E5C787E0C6
:101D90008093F0010E942509DFC7833009F04BC012
:101DA000E6E0F2E080E28083818393E5928324E79A
:101DB000238392E7948339E6358343E6468327837A
:101DC00080872DE421874FE6428724E6238725E696
:101DD0002487858786878787E2EFF1E053E4508385
:101DE00041834EE6428346E64383348395833DE652
:101DF0003683878330E530879187228793E79387FF
:101E00009487858793E2968787870E9451040E9472
:101E10006304133239F484E08093F00181E080930D
:101E2000D2019AC71A3209F097C782E08093F00175
:101E30000E94A40791C78430E1F5E6E0F2E080E279
:101E400080838183828393E5938394E5948322E561
:101E5000258329E4268323E42783908781879DE4D3
:101E600092879FE4938794E4948795E49587868787
:101E70008787E2EFF1E08DE3808381838283838330
:101E8000848385838683878380878187828783870E
:101E900084878587868787870E9451040E94630410
:101EA0001A3209F059C782E08093F0010E94A4071A
:101EB00053C7853009F0C0C1133209F4A4C11A32E6
:101EC00009F4A1C18091D601811190C00E94160130
:101ED000882309F44CC0E6E0F2E083E5808399E5CD
:101EE0009183828384E5838395E494838DE4858361
:101EF00080E2868329E427832EE4208781879287E6
:101F000092E5938794872FE4258796878787E2EF6A
:101F1000F1E090E5908392E7918395E6928323E741
:101F200023832483858323E22683878324E72087F2
:101F30002FE62187828726E7238729E6248795874E
:101F400097E7968787870E9451040E94630481E087
:101F50000E94E3012FEF84E39CE0215080409040F9
:101F6000E1F700C0000080E00E94E301F5C6E6E072
:101F7000F2E083E5808399E59183828384E583831E
:101F800085E484839DE4958380E2868329E4278326
:101F90002EE42087818722872FE4238722E5248768
:101FA000958791E496879CE49787E2EFF1E090E5CE
:101FB000908392E7918395E6928323E7238324839A
:101FC000858323E22683878324E720872FE62187E2
:101FD000828726E7238729E62487958797E79687D0
:101FE00087870E9451040E946304B6C6813009F0BD
:101FF00040C0E6E0F2E081E380838EE281838BE4FF
:10200000828395E6938389E7848380E7858381E6ED
:10201000868324E6278380E2808739E431873EE6A1
:10202000328733E7338739E6348725879687878772
:102030008091E101811107C00E94F6000E945104C5
:102040000E94630489C60E94D7000E9451040E9426
:10205000630481E00E94E3012FEF84E39CE02150C0
:1020600080409040E1F700C0000080E00E94E30162
:1020700073C6823009F041C0E6E0F2E082E380837B
:102080008EE281838BE4828385E6838399E7948360
:1020900090E7958391E6968394E6978320E22087E4
:1020A0002FE4218725E7228724E7238723E7248756
:1020B00029E62587968787878091E201811107C0ED
:1020C0000E94F6000E9451040E94630445C60E94CB
:1020D000D7000E9451040E94630481E00E94E30142
:1020E0002FEF84E39CE0215080409040E1F700C056
:1020F000000080E00E94E3012FC6833009F040C059
:10210000E6E0F2E083E380838EE2818383E58283ED
:1021100087E7838389E6848394E7958383E68683D0
:1021200088E6878383E480878FE681872EE622878F
:10213000938792E7948785878CE686878787809147
:10214000E301811107C00E94F6000E9451040E9421
:10215000630402C60E94D7000E9451040E946304D7
:1021600081E00E94E3012FEF84E39CE02150804056
:102170009040E1F700C0000080E00E94E301ECC560
:10218000843009F0E9C5E6E0F2E080E2808394E380
:1021900091839EE2928394E4938399E6948393E7F8
:1021A000958390E796839CE6978391E6908799E7DD
:1021B000918782879CE4938793E6948794E695873A
:1021C000868787878091E401811107C00E94F6000D
:1021D0000E9451040E946304BFC50E94D7000E9460
:1021E00051040E94630481E00E94E3012FEF84E325
:1021F0009CE0215080409040E1F700C0000080E06A
:102200000E94E301A9C5133271F481E08093D201E9
:102210008091D6018F5F8093D601853008F49CC5EC
:102220001092D60199C51A3209F096C582E08093C2
:10223000F0010E94A40790C5863009F000C5809186
:10224000D60181116BC0E6E0F2E081E380838EE28B
:10225000818385E482838EE6838397E6948399E67F
:102260009583868385E68783808792E7918790E2CE
:10227000928723E423872FE6248724E62587868711
:10228000978780ED810F8A30D0F48091D701873015
:1022900029F0E82FF0E0E550FE4F1083E82FF0E042
:1022A000E852FE4F10838F5F8093D701873011F47F
:1022B0001092D70181E08093D2011FEF22C0133228
:1022C00001F591E09093D601E2EFF1E084E48083A0
:1022D00081E6818384E7828385E683838AE384833E
:1022E00080E2858386832DE227838087818722870A
:1022F000838784878587868787879093D20110920A
:10230000D7010E9451040E9463041A3209F024C5C7
:1023100082E08093F0010E94A4071EC5813009F07D
:1023200056C0E6E0F2E080E28083818392E392830C
:102330009EE29383848394E4958391E6968394E765
:10234000978395E69087818724E5228729E623876E
:102350002DE6248795878687878780ED810F8A30D1
:1023600008F58091D7018B3029F0E82FF0E0E95093
:10237000FE4F1083E82FF0E0E050FF4F10838F5F97
:102380008093D701823021F48F5F8093D70105C0FD
:10239000853019F48F5F8093D70181E08093D2015B
:1023A0001FEF08C0133231F482E08093D60181E040
:1023B0008093D2010E9451040E9463041A3209F0F2
:1023C000CBC482E08093F0010E94A407C5C4823090
:1023D00009F049C0E6E0F2E080E2808393E5918372
:1023E00095E6928334E7338325E7248320E725832A
:1023F000868343E447834FE640874DE64187228743
:102400002CE623879487358796878787E2EFF1E06C
:10241000808330E531832283938321E6248323E77D
:10242000258396838783308732E731879287238796
:102430002487858793E2968787870E9451040E94AC
:1024400063041A3231F482E08093F0010E94A40701
:1024500083C4133209F080C483E08093D60181E005
:102460008093D20179C4833009F076C48DE38983E7
:102470008A838B838C838D838E838F8388878987E0
:102480008A878B878C878D878E878F87888B898BB0
:102490008A8B8B8B8C8BE6E0F2E083E4808372E79F
:1024A000718325E6228341E6438394E7948339E6EA
:1024B00035836EE6668357E6578380E28087A2E520
:1024C000A1872287A0E7A387AFE6A48775879687B1
:1024D0008787E2EFF1E070E570837CE67183228309
:1024E000438373E774832583868327E527834087A7
:1024F00031879287938734876587568787870E94BD
:1025000051040E94630410E00AC0E1E0F0E0EC0F27
:10251000FD1FE10FF11D80810E942A011F5F143110
:10252000A0F38AE00E942A012FEF84E39CE021506F
:1025300080409040E1F700C000008091D8018233D4
:1025400009F04BC08091DD01873309F046C08091CE
:10255000DE01873309F041C085E489838EE68A83F2
:1025600097E69B8399E69C838D8395E69E839F8364
:1025700092E798879AE3998734E53A8798E69B87AC
:1025800021E62C878D879E8790E29F87388B3FE6D8
:10259000398B2A8B8B8B9C8B10E00AC0E1E0F0E03A
:1025A000EC0FFD1FE10FF11D80810E942A011F5FCA
:1025B0001431A0F38AE30E942A0110E008C0E12F41
:1025C000F0E0E852FE4F80810E942A011F5F173021
:1025D000B0F38AE00E942A0134C085E489838EE644
:1025E0008A8397E69B8399E69C838D8395E69E83F9
:1025F0009F8392E798879AE3998795E59A878B87D7
:102600009BE69C878D878FE68E8787E78F8780E2A2
:10261000888B84E4898B81E68A8B94E79B8B8C8BF7
:1026200010E00AC0E1E0F0E0EC0FFD1FE10FF11D4A
:1026300080810E942A011F5F1431A0F38AE00E946A
:102640002A012FEF86E191E1215080409040E1F78F
:1026500000C0000084E4898391E69A8384E78B8339
:102660009C8390E29D838E8389E68F838DE68887A5
:1026700085E689878AE38A8710E00AC0E1E0F0E016
:10268000EC0FFD1FE10FF11D80810E942A011F5FE9
:102690001A30A0F310E008C0E12FF0E0E050FF4F47
:1026A00080810E942A011F5F1A30B0F38AE00E94E5
:1026B0002A012FEF84E39CE0215080409040E1F715
:1026C00000C0000088E4898395E69A8381E68B83C5
:1026D0008CE68C8324E72D8388E68E8380E28F83CB
:1026E0003FE6388736E639878A8733E73B8749E70D
:1026F0004C873D872E879F879DE6988B898B8A8B99
:102700008B8B8C8B10E00AC0E1E0F0E0EC0FFD1F3A
:10271000E10FF11D80810E942A011F5F1431A0F397
:102720008AE00E942A0181E389838EE28A8383E51D
:102730008B8389E78C8393E79D8384E78E8325E6EB
:102740002F838DE6888780E289873BE63A872B874F
:1027500020E72D8721E62E8724E62F87888B89E6C0
:10276000898B2EE62A8B9B8B8C8B10E00AC0E1E0D4
:10277000F0E0EC0FFD1FE10FF11D80810E942A01A6
:102780001F5F1431A0F384E60E942A0185E60E94AF
:102790002A018AE30E942A018091E101811122C06D
:1027A00087E489838FE48A838B8384E48C8380E24B
:1027B0008D8388E48E8381E688878CE6898784E729
:1027C0008A8788E68B8710E00AC0E1E0F0E0EC0F32
:1027D000FD1FE10FF11D80810E942A011F5F1B3048
:1027E000A0F330C085E4898382E58A838B839FE4EC
:1027F0009C838D8330E23E838DE48F838FE68887D0
:1028000084E6898795E79A872CE62B8785E68C876F
:102810003D8736E63E8731E63F8739E6388B298BA0
:102820009A8B92E79B8B8C8B10E00AC0E1E0F0E082
:10283000EC0FFD1FE10FF11D80810E942A011F5F37
:102840001431A0F38AE00E942A0182E389838EE298
:102850008A8383E58B8339E73C8383E78D8394E721
:102860009E8345E64F832DE6288720E229875BE695
:102870005A874B873C8730E73D8731E63E8734E611
:102880003F87288B2FE6298B25E72A8B9B8B8C8B08
:1028900010E00AC0E1E0F0E0EC0FFD1FE10FF11DD8
:1028A00080810E942A011F5F1431A0F389E60E94F3
:1028B0002A0184E60E942A0185E60E942A018AE311
:1028C0000E942A018091E201811122C087E489835C
:1028D0008FE48A838B8384E48C8380E28D8388E415
:1028E0008E8381E688878CE6898784E78A8788E6F5
:1028F0008B8710E00AC0E1E0F0E0EC0FFD1FE10F74
:10290000F11D80810E942A011F5F1B30A0F32FC0A0
:1029100085E4898382E58A838B839FE49C838D830E
:1029200020E22E838DE48F838FE6888784E6898773
:1029300085E78A879CE69B8785E68C872D8726E638
:102940002E8721E62F8729E6288B998B92E79B8B90
:102950008C8B10E00AC0E1E0F0E0EC0FFD1FE10F0E
:10296000F11D80810E942A011F5F1431A0F38AE0CB
:102970000E942A0183E389838EE28A8323E52B83E5
:1029800089E78C8383E78D8394E79E8385E68F8335
:102990008DE6888780E289872A8727E72B8729E6C3
:1029A0002C879D8793E69E8798E69F879AE3988B6E
:1029B000898B10E00AC0E1E0F0E0EC0FFD1FE10FB1
:1029C000F11D80810E942A011F5F1131A0F38091C7
:1029D000E301811122C087E489838FE48A838B839A
:1029E00084E48C8380E28D8388E48E8381E688870B
:1029F0008CE6898784E78A8788E68B8710E00AC09F
:102A0000E1E0F0E0EC0FFD1FE10FF11D80810E947D
:102A10002A011F5F1B30A0F330C085E4898382E563
:102A20008A838B839FE49C838D8330E23E838DE495
:102A30008F838FE6888784E6898795E79A872CE6D7
:102A40002B8785E68C873D8736E63E8731E63F87D4
:102A500039E6388B298B9A8B92E79B8B8C8B10E015
:102A60000AC0E1E0F0E0EC0FFD1FE10FF11D8081F5
:102A70000E942A011F5F1431A0F38AE00E942A01FC
:102A800084E389838EE28A8383E58B8389E78C8361
:102A900093E79D8324E72E8325E62F832DE6288761
:102AA00020E229873CE43A8733E63B8734E63C87DB
:102AB0002D8724E42E8729E62F87988B90E7998B22
:102AC0009CE69A8B91E69B8B8C8B10E00AC0E1E030
:102AD000F0E0EC0FFD1FE10FF11D80810E942A0143
:102AE0001F5F1431A0F38091E401811122C087E4BB
:102AF00089838FE48A838B8384E48C8380E28D8353
:102B000088E48E8381E688878CE6898784E78A87D4
:102B100088E68B8710E00AC0E1E0F0E0EC0FFD1FD3
:102B2000E10FF11D80810E942A011F5F1B30A0F37D
:102B30002FC085E4898382E58A838B839FE49C830D
:102B40008D8380E28E838DE48F838FE6888784E691
:102B5000898795E79A872CE62B8785E68C8736E66A
:102B60003E8731E63F8739E6388B298B9A8B92E78F
:102B70009B8B8C8B10E00AC0E1E0F0E0EC0FFD1FB6
:102B8000E10FF11D80810E942A011F5F1431A0F323
:102B90008AE00E942A012FEF8BE49DE121508040C2
:102BA0009040E1F700C00000E6E0F2E042E540833B
:102BB00085E6818350E752836FE6638332E734838F
:102BC00024E7258390E2968373E4778360876DE63C
:102BD000618752875CE6538784872587868754E61A
:102BE0005787E2EFF1E040838183228325E7238347
:102BF00034832EE62583968339E6378320879187B1
:102C000096E69287838797E7948793E595878687EB
:102C100083E687870E9451040E9463040E94EF01AB
:102C20002FEF83ED90E3215080409040E1F700C00A
:102C3000000082E08093F0010E94A4078DC08730DD
:102C400009F08AC0133209F080C0E6E0F2E082E5C4
:102C5000808395E6918333E73283938324E724834B
:102C6000258349E646838EE6878387E6808780E270
:102C7000818753E5528759E753873487258796879D
:102C80005DE65787E2EFF1E050E550835CE6518363
:102C9000928351E6538334839583868397E59783A4
:102CA00050874187228783878487858786878787A0
:102CB0000E9463040E9451040E9431018BEC0E9427
:102CC0001B048EE20E94E5032FEF82E597E021507E
:102CD00080409040E1F700C0000084E2E9EAF1E0C2
:102CE000DE01119601900D928A95E1F78EE20E9425
:102CF000E5032FEF80E792E0215080409040E1F71C
:102D000000C000008EE20E94E50310E00AC0E1E08E
:102D1000F0E0EC0FFD1FE10FF11D80810E942A0100
:102D20001F5F1332A0F38EE20E94E5030E94EF01C1
:102D30002FEF81EE94E0215080409040E1F700C0F9
:102D4000000084B78D7F84BF07C01A3229F482E067
:102D50008093F0010E94A407A4960FB6F894DEBFFA
:102D60000FBECDBFDF91CF911F910F9108952FEF2F
:102D700081EE94E0215080409040E1F700C00000D7
:102D80008CE00E941B048AE08093EE01E6E0F2E012
:102D900090E2908384E5818335E4328323E52383C5
:102DA000848395832FE4268340E54783308732E58B
:102DB000318731E43287838739E4348725873EE4DD
:102DC00036879787E2EFF1E020832EE621833CE609
:102DD000328339E73383948396E695839FE696831F
:102DE00092E79783808785E6818783E7828784E7F8
:102DF0008387848789E68587268787E687870E9479
:102E000051040E94630481E00E94750481E00E94E5
:102E1000810481E00E94B30181E00E94BF0181E052
:102E20000E94CB012FEF84E39CE021508040904032
:102E3000E1F700C0000081E00E94D7012FEF84E39A
:102E40009CE0215080409040E1F700C0000081E00C
:102E50000E94D7012FEF89E698E1215080409040F1
:102E6000E1F700C00000089581E00E94E3018FE4D3
:102E700093EC0197F1F700C0000080E00E94E301AD
:102E80009FEB25E484E0915020408040E1F700C0B2
:102E9000000082E08093EE01089584E18093EE01CA
:102EA00082E00E941B0488E20E941B048CE00E94C6
:102EB0001B042FEF83ED90E3215080409040E1F719
:102EC00000C00000089514BC85E085BD81EB86BD7F
:102ED00017BC18BC81E080936E000895E9E6F0E02D
:102EE00080818A6080838DB383608DBB83E08CBBDF
:102EF0001092680008958FE181B980EE82B98FE069
:102F000084B98FEF85B987B983EF8AB908959C0199
:102F100040E050E060E271EA87E090E00E944619EC
:102F2000DA01C9010197A109B109892F9A2FAB2FA5
:102F3000BB27A7FDBA958093C50021502093C400FC
:102F4000E1ECF0E080818061808380818860808313
:102F5000E0ECF0E080818064808386E08093C200B2
:102F600008958F929F92AF92BF92CF92DF92EF928D
:102F7000FF920F931F93CF93DF930E947B1781E003
:102F80000E94750481E00E94B30180E00E94BF01AD
:102F900081E00E94D70180E00E94CB0180E00E9486
:102FA00081040E944D1706E012E06894FF24F5F8B2
:102FB000F801F0820F2EF9E49F2EF02D91820F2E52
:102FC000FEE6BF2EF02DB2820F2EF9E6DF2EF02D99
:102FD000D3820F2EF4E7CF2EF02DC482D5820F2E90
:102FE000F1E6AF2EF02DA6820F2EFCE68F2EF02DEF
:102FF0008782D0868AE78187A286C386D4868FE6B9
:103000008587B686F786C2EFD1E08BE588830F2EE1
:10301000FDE3EF2EF02DE982EA82FB82FC82FD8245
:10302000FE82FF82F886F986FA86FB86FC86FD869C
:10303000FE868DE58F870E9451040E946304FFEF96
:1030400029E688E1F15020408040E1F700C000000F
:103050000E946E17EB82EC82ED820E9463049FEF68
:10306000E6E1F1E19150E040F040E1F700C00000FE
:103070000E946317EE82EF82E8860E946304E9866D
:10308000EA86EB862FEF81EE94E02150804090405D
:10309000E1F700C000000E946304EFEFF9E628E1C9
:1030A000E150F0402040E1F700C0000080E895E2E8
:1030B0000E948717EC86ED86EE860E9463048FEFF0
:1030C00096E1E1E181509040E040E1F700C000006E
:1030D00080E5F8018083818285E68283A38223E7ED
:1030E00024838583F6829782B086D186C286F38652
:1030F00034E53487D5869DE6968787873883D982DD
:103100009A838B838AE38C83FD82FE82FF8288E62A
:103110008887F986FA869B87FC86FD862E87FF8640
:103120000E9451040E9463048FB780688FBF81E0C2
:103130000E94E301FFE728E381E0F1502040804056
:10314000E1F700C0000080E00E94E301C0E0D0E0B1
:10315000F12CE12C00E011E00E94F202833239F4FC
:10316000E2E0F2E00383E282F18210E063C090EDDE
:10317000980F9A3008F05AC0209759F48093F801BC
:1031800090E0C097880F082F000F000F080F2196BE
:1031900045C0C130D10539F48093F901800F00EDAD
:1031A000080F21963BC0C230D10569F48093FB0122
:1031B000282F30E020533109220FE22EEE0CEE0CC6
:1031C000E20E21962BC0C330D10559F48093FC0147
:1031D0002E2D280F0F2EF0EDEF2EF02DE20E219662
:1031E0001DC0C430D10569F48093FE01482F50E022
:1031F00040535109440FF42EFF0CFF0CF40E21969E
:103200000DC0C530D10551F48093FF014F2D480FFB
:103210000F2EF0EDFF2EF02DF40E2196C630D105C5
:1032200011F4C0E0D0E00E94630404C08F3F11F0AD
:103230000E946304111190CFDF91CF911F910F91E4
:10324000FF90EF90DF90CF90BF90AF909F908F90C6
:1032500008950E94B1170E948D048FE60E942A01F2
:1032600080E00E94FE0780E00E94280C1C99F8CFA5
:103270000E94B71602C00E9434171C9BFCCF80919D
:10328000F001823069F70E94A407EACF052E97FB70
:103290001EF400940E945D1957FD07D00E94651925
:1032A00007FC03D04EF40C945D1950954095309571
:1032B00021953F4F4F4F5F4F0895909580957095A2
:1032C00061957F4F8F4F9F4F0895A1E21A2EAA1B41
:1032D000BB1BFD010DC0AA1FBB1FEE1FFF1FA217C6
:1032E000B307E407F50720F0A21BB30BE40BF50BC3
:1032F000661F771F881F991F1A9469F7609570954C
:10330000809590959B01AC01BD01CF010895F89483
:02331000FFCFED
:1033120002052D01002D02000002010101013C3EC7
:1033220054696D653A2030306830306D303073202A
:103332002D200050696C6F7420554E4C4F434B4505
:103342004420636F636B70697420646F6F722E0A1E
:103352000050696C6F74204C4F434B454420636F9F
:10336200636B70697420646F6F7220202E0A0045AF
:103372006D657267656E63792070696E2061636343
:1033820065737320686173206265656E207573656D
:10339200642E0A005B5761726E6E696E675D205320
:1033A200797374656D20686173206265656E20664D
:1033B20061696C65642E200A005B43617573696FF5
:1033C2006E5D2053797374656D2068617320626548
:0E33D200656E20726573657465642E0A0000D6
:00000001FF
