:020000040000FA
:100000000C9434000C94DC040C940E040C945100F9
:100010000C9451000C9451000C9451000C9451001C
:100020000C9451000C9451000C9451000C9451000C
:100030000C9451000C9451000C9451000C945100FC
:100040000C94A2050C9451000C9451000C94510096
:100050000C9451000C9451000C9451000C945100DC
:100060000C9451000C94510011241FBECFEFD8E026
:10007000DEBFCDBF11E0A0E0B1E0E6E2F3E302C0F5
:1000800005900D92AE3CB107D9F722E0AEECB1E09D
:1000900001C01D92A631B207E1F70E9430060C9410
:1000A00091190C9400002C9A08952D9A08959BB1F3
:1000B00021E030E001C0220F8A95EAF7922B9BB92C
:1000C00008959091C00095FFFCCF8093C600809169
:1000D000C00086FFFCCF08952B98289827E030E0D9
:1000E00090E02898AC01022E02C0559547950A94DD
:1000F000E2F740FF07C0299A289A2150310988F772
:100100002B9A08952998F8CF809315022A98289859
:1001100027E030E090E02898AC01022E02C055950F
:1001200047950A94E2F740FF07C0299A289A215080
:10013000310988F72A9A08952998F8CF80911502F5
:1001400080610C9484008091150280640C9484007A
:10015000EF92FF920F931F93CF93DF93CDB7DEB74C
:1001600065970FB6F894DEBF0FBECDBF85E1EEE018
:10017000F1E0DE01119601900D928A95E1F78091F0
:1001800003022AE0622F0E947719805D8987905DC3
:100190009A8780910202622F0E947719805D8C8776
:1001A000905D9D8780910102622F0E947719805D8A
:1001B0008F87905D988B8E010F5F1F4F7E0185E1C9
:1001C000E80EF11CF80181918F010E9461000E156B
:1001D0001F05C1F765960FB6F894DEBF0FBECDBF01
:1001E000DF91CF911F910F91FF90EF900895809133
:1001F00015028F7B0C948400809115028F770C94EC
:100200008400809115028F7E0C94840080911502E9
:100210008F7D0C9484005F9808950E9455002C985F
:100220000E9406010E94F7000E94FC000E9401014A
:100230000C940B0187E00E9457002FEF80E792E0BB
:10024000215080409040E1F700C000005F98089581
:100250005D985E980E946C0086E00E9457008FE3D4
:100260009FE10197F1F700C000005E980895CF93D9
:10027000C82F85E00E9457005E988C2F0E946C006A
:1002800086E00E9457008FE39FE10197F1F700C0DD
:1002900000005E98CF910895CF93DF9380EC0E9489
:1002A0002801CFEED1E089910E94370181E0CF3F54
:1002B000D807C9F7DF91CF910895CF93DF9380E8F6
:1002C0000E942801C4E0D2E089910E94370182E0B7
:1002D000C431D807C9F7DF91CF91089581E08093A9
:1002E0001402E4E0F2E08DE4808385E681838EE60B
:1002F000828385E7838320E22483A0E0B2E0139623
:100300008C9113973AE0632F0E947719805D858363
:10031000905D968388E6878312968C911297632F5F
:100320000E947719805D8087905D91878DE6828736
:1003300011968C91632F0E947719805D8387905D61
:10034000948783E78587268727871092FF010C947F
:100350005D01DF92EF92FF920F931F93CF93DF9394
:1003600081E080931402E4E0F2E081E4808383E69C
:10037000818384E7D82ED28289E6838386E78483CB
:10038000D5E6D58393E4E92EE6822FE6F22EF782B6
:1003900004E60087D1871AE31287C0E2C387AAE088
:1003A000B1E08C91805D848711968C911197805D6E
:1003B000858712968C911297805D868713968C9113
:1003C000805D87870E945D01EFEEF1E085E4808328
:1003D0008EE68183D282D38382E78483E582F682AC
:1003E0000783D0871187C287C387C487C587C6871D
:1003F000C787DF91CF911F910F91FF90EF90DF9012
:100400000C944C0180911502982F9F6090931502D7
:100410008E7F8E600E94840025E02A95F1F700000F
:1004200035990FC08FEF99EF20E081509040204028
:10043000E1F700C00000359BFECF0E941A0181E366
:10044000089534990FC08FEF99EF20E081509040CC
:100450002040E1F700C00000349BFECF0E941A014B
:1004600082E3089533990FC08FEF99EF20E0815018
:1004700090402040E1F700C00000339BFECF0E9477
:100480001A0183E3089580911502982F9F6090933D
:1004900015028D7F8D600E94840085E08A95F1F7BA
:1004A000000035990FC09FEF29EF80E09150204068
:1004B0008040E1F700C00000359BFECF0E941A018A
:1004C00084E3089534990FC09FEF29EF80E09150A5
:1004D00020408040E1F700C00000349BFECF0E9426
:1004E0001A0185E3089533990FC09FEF29EF80E04B
:1004F000915020408040E1F700C00000339BFECFC8
:100500000E941A0186E3089580911502982F9F603A
:10051000909315028B7F8B600E94840095E09A95E2
:10052000F1F7000035990FC02FEF89EF90E02150CF
:1005300080409040E1F700C00000359BFECF0E9454
:100540001A0187E3089534990FC02FEF89EF90E0E7
:10055000215080409040E1F700C00000349BFECF66
:100560000E941A0188E3089533990FC02FEF89EF95
:1005700090E0215080409040E1F700C00000339BA4
:10058000FECF0E941A0189E3089580911502982FE9
:100590009F6090931502877F87600E94840025E00A
:1005A0002A95F1F7000035990FC08FEF99EF20E001
:1005B000815090402040E1F700C00000359BFECF05
:1005C0000E941A018AE2089534990FC08FEF99EFC3
:1005D00020E0815090402040E1F700C00000349BB3
:1005E000FECF0E941A0180E3089533990FC08FEF68
:1005F00099EF20E0815090402040E1F700C00000DA
:10060000339BFECF0E941A0183E208958FEF089575
:1006100080911502982F9F60909315028E7F8E60B7
:100620000E94840025E02A95F1F7000030990FC060
:100630008FEF99EF20E0815090402040E1F700C01B
:100640000000309BFECF0E941A0181E3089531998A
:100650000FC08FEF99EF20E0815090402040E1F7EC
:1006600000C00000319BFECF0E941A0182E3089572
:1006700032990FC08FEF99EF20E0815090402040D9
:10068000E1F700C00000329BFECF0E941A0183E315
:10069000089580911502982F9F60909315028D7F89
:1006A0008D600E94840085E08A95F1F70000309902
:1006B0000FC09FEF29EF80E0915020408040E1F78C
:1006C00000C00000309BFECF0E941A0184E3089511
:1006D00031990FC09FEF29EF80E09150204080407A
:1006E000E1F700C00000319BFECF0E941A0185E3B4
:1006F000089532990FC09FEF29EF80E0915020407C
:100700008040E1F700C00000329BFECF0E941A013A
:1007100086E3089580911502982F9F6090931502AB
:100720008B7F8B600E94840095E09A95F1F7000022
:1007300030990FC02FEF89EF90E02150804090401A
:10074000E1F700C00000309BFECF0E941A0187E352
:10075000089531990FC02FEF89EF90E0215080402C
:100760009040E1F700C00000319BFECF0E941A01CB
:1007700088E3089532990FC02FEF89EF90E0215060
:1007800080409040E1F700C00000329BFECF0E9405
:100790001A0189E3089580911502982F9F60909324
:1007A0001502877F87600E94840025E02A95F1F773
:1007B000000030990FC08FEF99EF20E081509040FA
:1007C0002040E1F700C00000309BFECF0E941A01DC
:1007D0008AE2089531990FC08FEF99EF20E08150A0
:1007E00090402040E1F700C00000319BFECF0E9406
:1007F0001A0180E3089532990FC08FEF99EF20E03E
:10080000815090402040E1F700C00000329BFECFB5
:100810000E941A0183E208958FEF08951F920F92AC
:100820000FB60F921124EF92FF920F931F932F9305
:100830003F934F935F936F937F938F939F93AF9368
:10084000BF93EF93FF93CF93DF93CDB7DEB76E9750
:10085000DEBFCDBF8091D801882301F181E0809374
:10086000D6016E960FB6F894DEBF0FBECDBFDF91F6
:10087000CF91FF91EF91BF91AF919F918F917F9118
:100880006F915F914F913F912F911F910F91FF9029
:10089000EF900F900FBE0F901F90189583E08093FC
:1008A000D4010E9455002C988091150280620E940C
:1008B00084000E94F7000E94FC000E9401010E9437
:1008C0000B018AE08093CE0181E08093EC011092CD
:1008D000EE019DE390930402909305028BE58093D3
:1008E000060285E5809307022EE6209308022093F6
:1008F00009028FE680930A0232E730930B024DE63D
:1009000040930C0241E640930D024CE640930E02E8
:1009100040930F0249E7409310024DE540931102C6
:10092000909312029093130294E49093EF018093BA
:10093000F0018093F1013093F2019AE39093F30177
:1009400099E69093F40133E73093F50130E2309368
:10095000F6013CE43093F7018093F80183E680933D
:10096000F9018BE68093FA018093FB019093FC01DF
:100970002093FD0187E68093FE010E944C010E94B6
:100980005D010E94A8008EE1E1E9F1E0DE0111962F
:1009900001900D928A95E1F78E010F5F1F4F7E0146
:1009A0008EE1E80EF11CF80181918F010E94610037
:1009B0000E151F05C1F755CF1F920F920FB60F925C
:1009C0001124EF92FF920F931F932F933F934F9316
:1009D0005F936F937F938F939F93AF93BF93EF93A7
:1009E000FF93CF93DF93CDB7DEB76E97DEBFCDBF5A
:1009F0008091D801882301F181E08093D5016E9622
:100A00000FB6F894DEBF0FBECDBFDF91CF91FF913F
:100A1000EF91BF91AF919F918F917F916F915F9176
:100A20004F913F912F911F910F91FF90EF900F9059
:100A30000FBE0F901F90189582E08093D4012D98DF
:100A40000E9453000E9406010E94A3000E94FC0025
:100A50000E949E000E940B0185E08093CE0181E000
:100A60008093EC011092EE018DE380930402809359
:100A70000502809306029BE59093070293E490930E
:100A8000080291E69093090295E790930A0223E702
:100A900020930B0220930C0249E640930D023FE69F
:100AA00030930E029EE690930F025DE55093100284
:100AB00080931102809312028093130284E4809346
:100AC000EF013093F0013093F10182E78093F2015E
:100AD00080E28093F30139E43093F4012093F5012F
:100AE0008093F6018FE48093F70180E78093F8010B
:100AF00085E68093F9019093FA019093FB0140936E
:100B0000FC019093FD010E944C010E945D010E9436
:100B1000A8008EE1EFEAF1E0DE01119601900D925E
:100B20008A95E1F78E010F5F1F4F7E018EE1E80E7F
:100B3000F11CF80181918F010E9461000E151F05C3
:100B4000C1F75DCF1F920F920FB60F9211248F93B2
:100B50009F9383E686BD809100028F5F84364CF4BC
:100B6000809300029F918F910F900FBE0F901F9066
:100B700018951092000281E08093EB0180910102B0
:100B80008F5F809301029091D701992319F09150C2
:100B90009093D7019091CE0119161CF49150909327
:100BA000CE019091ED0119161CF491509093ED0136
:100BB0008C33C4F210920102809102028F5F8C3359
:100BC0001CF480930202CECF1092020280910302A5
:100BD0008F5F88311CF480930302C4CF109203020C
:100BE000C1CFEFEEF1E08DE480839FE6918384E650
:100BF000828385E783838CE6848325E6258320E250
:100C0000268339E6378333E7308721872EE622872C
:100C1000938792E794879DE6958791E696878787E5
:100C20000895EFEEF1E08DE480838FE6818384E622
:100C3000828385E783838CE6848385E6858380E2EF
:100C4000868399E6978393E79087818795E49287D7
:100C500092E5938794872FE4258796878787089561
:100C6000CF93DF93CDB7DEB7A9970FB6F894DEBF69
:100C70000FBECDBF84B18F6384B987B1807C87B943
:100C80008FEF88B98AB1806E8AB98BB181618BB9D7
:100C90000E94A3000E949E000E9406010E94530031
:100CA0002D980E94FC0084E18093ED018CE00E946D
:100CB000280188E30E9428012FEF87EA91E621505E
:100CC00080409040E1F700C0000010E21093040261
:100CD00079E4B72EB0920502EEE6DE2ED09206023F
:100CE000F9E6FF2EF0920702A4E7EA2EE09208024E
:100CF000F0920902B1E6CB2EC0920A020CE6A02EB9
:100D0000A0920B02F0920C028AE780930D02C0922F
:100D10000E02E0920F02F09210028FE68093110211
:100D2000D0921202109313028BE58093EF010DE332
:100D30000093F0010093F1011093F2011093F3017D
:100D40001093F4011093F5011093F6011093F7013D
:100D50001093F8011093F9011093FA011093FB011D
:100D60001093FC011093FD018DE58093FE010E941C
:100D70005D010E944C01EFEFF3ED20E3E150F04004
:100D80002040E1F700C000008AE08093690083E022
:100D90008DBB8CBB109268000093F2010093F301AD
:100DA0000093F4010E944C018FEF9DE2E2E281503A
:100DB0009040E040E1F700C0000014BC85E085BD34
:100DC00083E686BD17BC18BC81E080936E0000935B
:100DD000F5010093F6010093F7010E944C01009386
:100DE000F8010093F9010093FA01FFEF23EC89E089
:100DF000F15020408040E1F700C000000E944C010B
:100E00009FEFE3EDF0E39150E040F040E1F700C0E8
:100E100000001092C50087E68093C4008091C10055
:100E200080618093C1008091C10088608093C1007F
:100E30008091C00080648093C00086E08093C200EF
:100E40000093FB010093FC010093FD010E944C0103
:100E50002FEF8DE292E2215080409040E1F700C0F8
:100E6000000080E580930402A092050285E680934D
:100E70000602C092070223E720930802809309022A
:100E800010930A02B0920B02D0920C02F0920D0263
:100E9000E0920E0210930F0234E530931002F092AC
:100EA00011029DE690931202809313023093EF019A
:100EB000F092F0019093F1018093F2018AE3809324
:100EC000F3011093F4011093F5011093F60188E6F5
:100ED0008093F7011093F8011093F9019093FA01B0
:100EE0001093FB011093FC012093FD011093FE0170
:100EF0000E945D010E944C018FB780688FBF87E020
:100F00000E945700EFEFF0E722E0E150F040204070
:100F1000E1F700C000000E940B0110E000E0D12CBE
:100F2000E12CF12C8AE0C82E0E940202833209F0E3
:100F30005DC1F0920302E0920202D09201020E948F
:100F40000D011E0185E2280E311CFE01B496FFA39F
:100F5000EEA3CE01459699A788A7BAE06B2E15E0BF
:100F6000512E10E203E5702E0E9408039091D401E7
:100F7000911153C290ED980F9A3008F095C180916D
:100F8000D301E82F082E000CFF0BE153FE4F908396
:100F90008F5F8093D301853011F41092D3010E94AA
:100FA0000202082F8F3F11F40C9465191092EC0186
:100FB0008091EC01811162C00F3F09F45FC0609223
:100FC000ED018091EE01811143C31093040249E4C5
:100FD000409305022EE62093060289E680930702DD
:100FE00094E7909308028093090231E630930A0255
:100FF0005CE650930B0230930C025AE750930D02BB
:1010000030930E0290930F02809310023FE63093CC
:101010001102209312021093130231E33093EF0177
:101020003EE23093F0014093F1012093F20180936E
:10103000F3019093F4011093F5011093F6011093CE
:10104000F7011093F8011093F90182E38093FA01FC
:101050003093FB018FE48093FC0186E68093FD01D1
:101060008093FE010E945D010E944C01013309F052
:10107000E8C221E02093EE010E94A9014C9974CFAF
:101080002FEF83EC99E0215080409040E1F700C0C1
:1010900000008CE00E9428018AE08093ED0190E23C
:1010A0009093040284E58093050235E430930602B0
:1010B00023E52093070280930802909309022FE40E
:1010C00020930A0240E540930B0230930C0232E574
:1010D00030930D0231E430930E0280930F0239E415
:1010E00030931002209311023EE430931202909349
:1010F00013022093EF012EE62093F0013CE630939B
:10110000F10139E73093F2019093F30196E6909361
:10111000F4019FE69093F50192E79093F601809396
:10112000F70185E68093F80183E78093F90184E76E
:101130008093FA018093FB0189E68093FC01209360
:10114000FD0187E68093FE010E945D010E944C0133
:101150000E94A3008091150280680E9484000E9472
:101160009E008091150280620E9484000E945500BA
:10117000EFEFF9E628E1E150F0402040E1F700C050
:1011800000000E9453008FEF99E6E8E18150904003
:10119000E040E1F700C000000E945300FFEF23EDA4
:1011A00080E3F15020408040E1F700C0000012E0F1
:1011B0004C9B02C00C945B1987E00E9457009FE78C
:1011C000E8E3F1E09150E040F040E1F700C00000BA
:1011D0000E940B012FE78BE898E02150804090405F
:1011E000E1F700C000001093ED01E2CF90ED980F01
:1011F0009A3008F055C00115110569F48093F50186
:101200008C9D802D112460E2F62EF80E01E010E096
:101210000E944C0189CE0130110549F48093F601FA
:101220008F0D50EDF52EF80E02E010E0F1CF0230F8
:10123000110559F48093F8018C9D802D112440E212
:10124000E42EE80E03E010E0E3CF0330110549F48B
:101250008093F9018E0D30EDE32EE80E04E010E0EE
:10126000D7CF0430110559F48093FB018C9D802D5C
:10127000112420E2D22ED80E05E010E0C9CF0530AF
:10128000110549F48093FC018D0D90EDD92ED80EF7
:1012900010E000E0BDCF0630110509F0B9CFF8CF5E
:1012A0008F3F09F441CEB4CF8A3209F476CE83322F
:1012B00009F075CE8091EE01843009F470CE8091F2
:1012C000D301843009F095C01092D301EFECF1E026
:1012D000AAE0B1E091918D91981361CE83ED91E0F8
:1012E0008E179F07B9F784E08093D401E1E0E09383
:1012F000EC010E9455002C980E9406010E94F70004
:101300000E94FC000E9401010E940B018EE180936B
:10131000CE01F1E0F093EC011093040285E4809398
:1013200005029DE4909306028093070292E5909354
:10133000080297E49093090280930A020EE4009356
:101340000B0283E480930C0289E580930D021093D5
:101350000E0210930F02109310021093110283E7F4
:1013600080931202109313020E945D017092EF01AC
:1013700097E79093F00189E68093F10184E78093E9
:10138000F20123E62093F30188E68093F40184E5DB
:101390008093F5018FE68093F6013CE43093F701EA
:1013A0008093F8012093F9012BE62093FA01009332
:1013B000FB018093FC019093FD0181E28093FE018B
:1013C0000E944C010E94A80085E2E3E2F1E0DE0108
:1013D000119601900D928A95E1F7CE0101967C015C
:1013E000F70181917F010E9461002E143F04C1F733
:1013F000D6CDF1E0F093D4010E9455002C980E94C4
:1014000006010E94F7000E94FC000E9401010E9458
:101410000B0183E08093CE01C2CD9130A1F4809185
:10142000CE01811105C01092D4010E940D01B7CDEB
:101430008091000282331CF40E940B01B0CD87E042
:101440000E945700ACCD9230C1F48091CE01811141
:1014500006C01092D4010E940D011092EC018091FF
:10146000EC0181119CCD8091EE01811198CD82E03B
:101470008093EE010E946E0192CD933031F394304F
:1014800009F0BAC08091CE01811182C05092D4017E
:101490002FE02093CE0181E08093EC012D980E94F3
:1014A00053000E9406010E94A300809115028068EB
:1014B0000E9484000E949E000E940B019FE0909376
:1014C000CE01E1E0E093EC0110930402709205027A
:1014D00089E5809306027092070284E580930802F2
:1014E00085E4809309029DE490930A0210930B0215
:1014F00096E490930C0291E490930D0299E49093FA
:101500000E029CE490930F0295E59093100292E5F1
:101510009093110280931202109313020E945D01B6
:101520008DE38093EF018093F0018093F10180932C
:10153000F2018093F3018093F4018093F50180938D
:10154000F6018093F7018093F8018093F90180936D
:10155000FA018093FB018093FC018093FD0180934D
:10156000FE010E944C0185E2E8E4F1E0DE01119603
:1015700001900D928A95E1F7CE0101967C01F70169
:1015800081917F010E946100E214F304C1F707CD4D
:1015900080910002662D0E94771980FF25C00E946D
:1015A0000B010E94A3000E949E008091EB01882302
:1015B00009F4F5CC8CE80E9428018091CE01662DBB
:1015C0000E947719805D0E9437018DE80E942801F2
:1015D0008091CE01662D0E94771980E3890F0E94C9
:1015E00037011092EB01DBCC87E00E9457000E948C
:1015F00001010E94F700D9CF953009F0D0CC80913D
:10160000CE0181110CC01092EC011092D4010E9405
:101610000D010E946E01F1E0F0931402C0CC8091A4
:10162000EB01882309F4BBCC87EC0E942801809150
:10163000CE01662D0E947719805D0E94370188ECEB
:10164000C5CF023309F01ACD88E00E94280116CDDB
:10165000813009F095C090ED900F9A3030F580916F
:10166000EA01282F082E000C330B843021F0F901F9
:10167000E151FE4F04872A513E4FF90190838F5F5D
:10168000853009F47AC08093EA010E945D010E94CE
:101690004C010A3209F0F2CC82E08093EE01F1E0D5
:1016A000F09314020E946E01E9CC033271F780912D
:1016B000EA01843009F004C7F091E601F0930A01D1
:1016C0003091E70130930B012091E80120930C0148
:1016D0009091E90190930D0181E48093040283E6E7
:1016E00080930502E4E7E093060289E6809307020F
:1016F00086E78093080285E68093090273E470937D
:101700000A026FE660930B0254E650930C0280933A
:101710000D024AE340930E0210930F02F05DF09326
:101720001002305D30931102205D20931202905D13
:101730009093130295E49093EF019EE69093F0014D
:10174000E093F1018093F20192E79093F30170939B
:10175000F4016093F5015093F6018093F7014093F3
:10176000F8011093F9011093FA011093FB01109303
:10177000FC011093FD011093FE011092EA0185CF48
:10178000823009F073C580910302662D0E9477199B
:10179000805D80930902905D90930A02809102021D
:1017A000662D0E947719805D80930C02905D909366
:1017B0000D0280910102662D0E947719805D809351
:1017C0000F02905D909310022091E2018091E3015D
:1017D000280F3327331F8091E401280F311D80919A
:1017E000E501820F932F911D892B19F08FEF8093C4
:1017F00013028091FF0181113AC081E38093EF01D0
:101800002EE22093F00185E48093F10184E6809339
:10181000F20199E69093F30184E78093F401109329
:10182000F5011093F60132E33093F7012093F801AC
:101830007092F9018093FA0122E72093FB019093C3
:10184000FC0193E69093FD018093FE010E945D01EF
:101850000E944C01013309F40CCC023309F0DFC0C3
:1018600083E08093EE0121E02093140207CC8130C5
:1018700061F51093EF0183E38093F0018EE2809392
:10188000F10184E58093F20185E68093F30193E70B
:101890009093F40194E79093F5011093F6019BE483
:1018A0009093F7018093F80189E78093F90180E52F
:1018B0008093FA0181E68093FB0184E68093FC012A
:1018C0001093FD011093FE01C1CF823059F51093A2
:1018D000EF0184E38093F0018EE28093F10184E5CF
:1018E0008093F20185E68093F30183E78093F4010E
:1018F00094E79093F5011093F60194E49093F70127
:1019000099E69093F8018093F90180E78093FA01BA
:101910008CE68093FB0181E68093FC0189E780934C
:10192000FD01D0CF833031F51093EF0185E3809333
:10193000F0018EE28093F10189E48093F2018EE65A
:101940008093F30196E69093F4019FE69093F5015E
:1019500022E72093F6012DE62093F70121E620935C
:10196000F80124E72093F90129E62093FA019093E6
:10197000FB01A4CF843059F586E38093EF018EE21A
:101980008093F0011093F10183E48093F20122E748
:101990002093F30185E68093F40191E69093F5019D
:1019A00094E79093F6018093F7011093F80132E5E4
:1019B0003093F9018093FA0180E78093FB018FE671
:1019C0008093FC012093FD019093FE013FCF853071
:1019D00009F03CCF1093EF0187E38093F0018EE292
:1019E0008093F10182E58093F20185E68093F30113
:1019F00093E79093F4018093F50124E72093F60197
:101A00001093F7019093F80139E73093F90190931F
:101A1000FA012093FB018093FC018DE680CF0A320E
:101A200069F48091FF01815087FD06C08093FF011A
:101A300081E08093140222CB84E0F8CF033241F49A
:101A40008091FF018F5F86308CF31092FF01F0CF01
:101A5000033309F030C21092E2011092E3011092B8
:101A6000E40191E09093D801EFEFF9E628E1E1502D
:101A7000F0402040E1F700C0000084E580930402BC
:101A800085E68093050293E79093060224E720936E
:101A90000702109308022BE42093090280930A02A4
:101AA00029E720930B0220E520930C0210930D02EE
:101AB00029E420930E022EE620930F029093100249
:101AC00099E69093110294E6909312028093130288
:101AD000F12C00E044E0E42E50E5952E62E7862EDE
:101AE00075E6A72EE3E7BE2EFEE2DF2EA3E64A2E22
:101AF000E092D7019092EF018092F001A092F10163
:101B0000B092F201B092F3011093F401D092F60179
:101B1000D092F701D092F801D092F9011093FA0116
:101B2000B092FB01A092FC014092FD011093FE01D6
:101B30000A3009F0A4C18AE28093F5013AE2C32E8B
:101B40000E945D010E944C010E9402028C15C1F0AE
:101B50008091EB01882341F08BEC0E942801809159
:101B6000D701805D0E9437018091D7018111ECCFB0
:101B7000F394E1E0E093E2010E941A010E941A014D
:101B80000F5F0C3009F0B4CF84E58093040285E642
:101B90008093050293E79093060224E720930702BF
:101BA000109308023BE63093090280930A0239E75A
:101BB00030930B0210930C023FE430930D0235E793
:101BC00030930E0220930F029093100299E69093A7
:101BD000110294E6909312028093130200E064E0F5
:101BE000E62E70E5972EE2E78E2EF5E6AF2EA3E700
:101BF000BA2EBEE2DB2E83E6482EE092D701909209
:101C0000EF018092F001A092F101B092F201B09246
:101C1000F3011093F401D092F601D092F701D09223
:101C2000F801D092F9011093FA01B092FB01A09251
:101C3000FC014092FD011093FE010A3009F02DC114
:101C4000FAE2F093F5015AE2C52E0E945D010E946E
:101C50004C010E9408038C15C1F08091EB01882390
:101C600041F08BEC0E9428018091D701805D0E9499
:101C700037018091D7018111ECCFF39481E08093FB
:101C8000E3010E941A010E941A010F5F0C3009F053
:101C9000B4CF1092D6011092D50110930402109384
:101CA000050284E58093060295E490930702709202
:101CB00008028093090210930A0270920B0297E5C2
:101CC00090930C0299E490930D0280930E0283E4AA
:101CD00080930F0288E480931002109311021093F6
:101CE00012021093130285E58093EF018EE6809334
:101CF000F0018CE68093F1018FE68093F20183E698
:101D00008093F3019BE69093F4011093F50134E77F
:101D10003093F60195E69093F70123E72093F801BD
:101D20003093F9011093FA011093FB012093FC0109
:101D30009093FD018093FE010E945D010E944C0181
:101D40005092D7018091D50181111AC08091EB0189
:101D5000882351F01092EB018BEC0E9428018091B6
:101D6000D701805D0E9437018091D7018111EACFB0
:101D7000F39491E09093E4010E941A010E941A01E9
:101D8000109304021093050284E58093060295E403
:101D900090930702709208028093090210930A023E
:101DA00070920B0297E590930C0299E490930D02C8
:101DB00080930E0293E490930F0298E490931002A4
:101DC0001093110210931202109313029CE490934B
:101DD000EF019FE69093F00193E69093F1012BE6DB
:101DE0002093F2011093F3018093F40185E6809330
:101DF000F50123E72093F60134E73093F7011093C0
:101E0000F8011093F9011093FA011093FB0120934C
:101E1000FC018093FD019093FE010E945D010E94F0
:101E20004C015092D7018091D60181111AC0809146
:101E3000EB01882351F01092EB018BEC0E942801FA
:101E40008091D701805D0E9437018091D701811177
:101E5000EACFF394E1E0E093E4010E941A010E94CA
:101E60001A011092D801F1E0F09314028091E1017F
:101E7000F80EF092E10182E08093EE0113CC0B307A
:101E800031F493E29093F50123E2C22E59CE90E310
:101E9000C92EC00EC092F50153CE0B3031F423E2AF
:101EA0002093F50143E2C42ED0CE30E3C32EC00E02
:101EB000C092F501CACE043309F03EC11092E5018B
:101EC00021E02093D801109304021093050244E509
:101ED0004093060235E63093070293E79093080299
:101EE00084E78093090210930A0224E420930B02F2
:101EF00029E620930C0290930D0250E750930E02B6
:101F00005CE650930F0251E65093100269E760932C
:101F1000110210931202109313021093EF017092AA
:101F2000F0018093F1015093F20152E75093F301D5
:101F30008093F4011093F5014093F6013093F7017B
:101F40009093F8018093F9018093FA012093FB01AB
:101F50008EE68093FC0187E68093FD011093FE01DD
:101F60000E945D010E944C018FEF91EEE4E08150F0
:101F70009040E040E1F700C000008DEC0E94280195
:101F80008EE20E943701FFEF29EF80E0F150204000
:101F90008040E1F700C000008EE20E9437019FEF11
:101FA000E0E7F2E09150E040F040E1F700C00000CF
:101FB0008EE20E9437012FEF85EA9EE0215080409B
:101FC0009040E1F700C0000081E00E94280180E815
:101FD0000E94280100E18FEF0E943701EFEFF0E748
:101FE00022E0E150F0402040E1F700C00000015045
:101FF00091F780EC0E94280120E1F22E8FEF0E94E1
:1020000037018FEF90E7E2E081509040E040E1F748
:1020100000C00000FA94F110F1CFFFEF29E688E14B
:10202000F15020408040E1F700C0000050E550939F
:10203000040292E79093050245E64093060283E787
:102040008093070280930802109309022AE22093EA
:102050000A0210930B0229E620930C0236E6309315
:102060000D0210930E0225E420930F0222E5209327
:102070001002209311026FE4609312022093130266
:102080005093EF019093F0014093F1018093F2019E
:102090008093F30183E28093F4011093F50189E4C6
:1020A0008093F6013093F7011093F8018EE480934A
:1020B000F9018FE68093FA019093FB018DE68093FE
:1020C000FC0181E68093FD018CE68093FE010E9475
:1020D0001A010E944C010E945D015092D7010E949A
:1020E0000202082F8091D701811119C0F39491E069
:1020F0009093E2019093E5010E941A010E941A0157
:10210000E1E0E093140280E00A3259F4F394F1E044
:10211000F093E501F09314021092D801A7CE81E06C
:10212000F3CF033231F41092E50121E02093140241
:10213000F3CF882389F3D3CF053319F45092EE01FE
:1021400084CC0633A1F586E08093EE011092FF0166
:1021500091E09093140289E58093EF018FE68093DC
:10216000F00195E79093F10192E79093F20193E4E7
:102170009093F3018093F40184E68093F50185E662
:102180008093F6018AE38093F7011093F80110938E
:10219000F9011093FA011093FB011093FC011093C5
:1021A000FD011093FE011092E0010C943E080733EC
:1021B00011F00C943E0887E08093EE01E1E0E0939B
:1021C000140282E58093040295E69093050283E76A
:1021D000809306029093070224E72093080210934D
:1021E000090270920A0239E730930B0280930C02C5
:1021F00020930D0290930E022DE620930F02109370
:1022000010023FE330931102109312021093130255
:1022100030E53093EF0132E73093F0019093F10114
:102220008093F2018093F3011093F40183E2809391
:10223000F5011093F60183E68093F7018FE6809312
:10224000F8018EE68093F90186E68093FA0189E62B
:102250008093FB013093FC012093FD011093FE015C
:102260000E944C010E945D010C943E08833009F0ED
:102270005EC010930402109305027092060294E768
:102280009093070282E78093080229E620930902CF
:1022900033E630930A0290930B0210930C029DE4F4
:1022A00090930D023FE630930E0294E690930F0256
:1022B00095E690931002109311021093120210935E
:1022C000130243E44093EF013093F0013EE6309374
:1022D000F10136E63093F2012093F3018093F4018B
:1022E0002DE62093F5011093F60120E52093F701E8
:1022F0008093F8019093F90183E78093FA0180932A
:10230000FB011093FC0183E28093FD011093FE0119
:102310000E945D010E944C01033209F058C084E024
:102320008093EE01F1E0F09314020C943E088430A7
:1023300009F052C010930402109305021093060294
:102340007092070284E58093080292E59093090257
:1023500099E490930A0293E490930B0280930C0209
:1023600010930D028DE480930E028FE480930F0290
:1023700084E48093100285E480931102109312028A
:10238000109313028DE38093EF018093F00180930B
:10239000F1018093F2018093F3018093F401809323
:1023A000F5018093F6018093F7018093F801809303
:1023B000F9018093FA018093FB018093FC018093E3
:1023C000FD018093FE010E945D010E944C010A32D2
:1023D00011F00C943E084FCD853009F0C8C103328E
:1023E00009F4B5C10A3209F446CD8091FF0181118B
:1023F000D1C02091E2018091E301280F3327331FE0
:102400008091E401280F311D8091E501820F932F07
:10241000911D70920402892B09F058C089E58093C0
:1024200005027092060284E58093070285E480939A
:1024300008028DE48093090210930A0299E49093B4
:102440000B029EE490930C0210930D0290930E02E7
:102450009FE490930F0292E59093100280931102F3
:1024600081E4809312028CE48093130280E58093D0
:10247000EF0182E78093F00185E68093F10193E715
:102480009093F2019093F3011093F40193E29093EF
:10249000F5011093F60194E79093F7019FE690936E
:1024A000F8011093F90196E79093FA0199E6909359
:1024B000FB018093FC0187E78093FD011093FE01EF
:1024C0000E945D010E944C010C943E0889E58093B6
:1024D00005027092060284E58093070285E48093EA
:1024E00008029DE49093090210930A0299E49093E4
:1024F0000B029EE490930C0210930D0280930E0247
:1025000082E580930F02809310029FE49093110262
:10251000809312021093130280E58093EF0182E70B
:102520008093F00185E68093F10193E79093F201A7
:102530009093F3011093F40193E29093F5011093BB
:10254000F60194E79093F7019FE69093F8011093BA
:10255000F90196E79093FA0199E69093FB01809335
:10256000FC0187E78093FD011093FE010E945D014D
:102570000E944C0187E00E9457002FEF89E698E106
:10258000215080409040E1F700C000000E940B0104
:102590000C943E08813009F044C081E3809304022A
:1025A0008EE2809305028BE48093060285E6809399
:1025B000070299E79093080290E79093090291E649
:1025C00090930A0294E690930B0210930C0229E474
:1025D00020930D022EE620930E0223E720930F0294
:1025E00029E6209310029093110280931202109317
:1025F00013028091E201811103C00E94F10560CFB6
:102600000E9411060E945D010E944C0187E00E9419
:102610005700EFEFF9E628E1E150F0402040E1F704
:10262000B3CF823081F582E3809304028EE28093FF
:1026300005028BE48093060285E68093070299E702
:102640009093080290E79093090291E690930A0212
:1026500094E690930B0210930C022FE420930D024A
:1026600025E720930E0224E720930F0223E720930F
:10267000100229E620931102909312028093130214
:102680008091E301B8CF833079F583E3809304022E
:102690008EE2809305027092060287E7809307021C
:1026A00089E68093080294E79093090283E6809379
:1026B0000A0288E680930B0283E480930C028FE683
:1026C00080930D022EE620930E0290930F0292E764
:1026D00090931002809311028CE6809312028093F3
:1026E00013028091E40187CF843011F00C943E08EE
:1026F0001093040284E3809305028EE28093060225
:1027000084E48093070289E68093080283E780933C
:10271000090280E780930A028CE680930B0281E62F
:1027200080930C0289E780930D0210930E028CE4D3
:1027300080930F0283E68093100284E68093110257
:1027400010931202109313028091E50154CF81E09F
:10275000809314028091FF018F5F853024F4809371
:10276000FF010C943E081092FF010C943E08863045
:1027700009F000C58091FF0181117AC081E3809347
:1027800004028EE28093050285E4809306028EE6C1
:102790008093070297E69093080299E690930902C6
:1027A00080930A0285E680930B0280930C0292E7E5
:1027B00090930D0210930E0293E490930F029FE604
:1027C0009093100294E6909311028093120210935A
:1027D000130290ED900F9A30D8F48091E001282FE9
:1027E00030E0873021F0F901E151FE4F0187275297
:1027F0003E4FF90100838F5F873019F08093E0012D
:1028000002C01092E001F1E0F09314020FEFDBCD73
:10281000033209F0D8CD21E02093FF0194E4909396
:10282000EF0191E69093F00194E79093F10180938A
:10283000F2018AE38093F3011093F4011093F50100
:102840008DE28093F6011093F7011093F8018093C5
:10285000F9011093FA011093FB011093FC011093FE
:10286000FD011093FE01209314021092E001ABCD04
:10287000813009F04EC0109304021093050292E3D8
:10288000909306029EE2909307021093080294E44C
:102890009093090291E690930A0294E790930B02B9
:1028A00095E690930C0210930D0224E520930E02FE
:1028B00029E620930F022DE6209310029093110237
:1028C000109312021093130290ED900F9A30C0F4FF
:1028D0008091E001282F30E08B3021F0F901E151A7
:1028E000FE4F058320503F4FF90100838F5F8230F8
:1028F00011F483E083CF853009F080CF86E07ECF6E
:10290000033209F060CD92E09093FF0180931402AE
:102910005ACD823009F05DC0109304027092050216
:1029200085E68093060224E72093070295E79093BB
:10293000080290E79093090210930A0233E430935F
:102940000B023FE630930C023DE630930D0290936C
:102950000E029CE690930F028093100220931102C6
:1029600080931202109313021093EF0120E520933D
:10297000F0019093F1018093F20191E69093F301BD
:1029800093E79093F4018093F5011093F60120935F
:10299000F70122E72093F8018093F9019093FA015F
:1029A0009093FB011093FC0183E28093FD0110934F
:1029B000FE010E945D010E944C010A3209F45BCACB
:1029C000033211F00C943E0883E08093FF010C94D5
:1029D000330C833011F00C943E088DE389838A8395
:1029E0008B838C838D838E838F83888789878A8767
:1029F0008B878C878D878E878F87888B898B8A8B37
:102A00008B8B8C8B83E48093040262E760930502D6
:102A100095E69093060231E63093070284E78093AF
:102A2000080229E6209309025EE650930A0247E66F
:102A300040930B0210930C0272E570930D02909379
:102A40000E0270E770930F027FE67093100260939E
:102A50001102809312021093130260E56093EF015C
:102A60006CE66093F0019093F1013093F20163E71B
:102A70006093F3019093F4011093F50197E590931F
:102A8000F6013093F7012093F8018093F9018093C8
:102A9000FA012093FB015093FC014093FD01109338
:102AA000FE010E945D010E944C01CE0101967C0155
:102AB0005C01F50181915F010E94610088A599A5E3
:102AC0008A159B05B1F78AE00E9461009FEFE9E655
:102AD000F8E19150E040F040E1F700C00000809143
:102AE000D901823309F071C28091DE01873309F088
:102AF0006CC28091DF01873309F067C285E4898366
:102B00008EE68A8397E69B8399E69C838D8395E680
:102B10009E839F8392E798879AE3998724E52A8783
:102B200038E63B8791E69C878D873E871F87288BF9
:102B30002FE6298B9A8B8B8B1C8B6701F601819179
:102B40006F010E946100AC14BD04C1F780E20E94D5
:102B5000610099EDC92E91E0D92EF60181916F01A6
:102B60000E94610080EE91E08C159D05B1F78AE02E
:102B70000E9461009FEFEDE2F2E29150E040F040F0
:102B8000E1F700C0000084E4898391E69A8384E73A
:102B90008B839C831D838E8389E68F838DE6888754
:102BA00085E689878AE38A8747012AE0820E911C9D
:102BB0006701F60181916F010E9461008C149D04F0
:102BC000C1F780E0C82E81E0D82EF60181916F0117
:102BD0000E9461008AE091E08C159D05B1F78AE0C2
:102BE0000E9461009FEFE9E6F8E19150E040F0407B
:102BF000E1F700C0000088E4898385E68A8391E6D6
:102C00009B839CE69C8394E79D8328E62E831F8309
:102C10002FE6288726E629871A8723E72B8739E7B7
:102C20003C872D879E878F878DE6888B198B1A8B23
:102C30001B8B1C8B6701F60181916F010E94610063
:102C4000AC14BD04C1F78AE00E94610081E389836E
:102C50008EE28A837B8289E78C8393E79D8384E776
:102C60008E8385E68F832DE6288719872BE62A87B2
:102C70008B8780E78D8781E68E8784E68F87188B28
:102C800089E6898B2EE62A8B9B8B8C8B5701F5016D
:102C900081915F010E946100CA14DB04C1F784E6E0
:102CA0000E94610085E60E9461008AE30E94610043
:102CB0008091E2018111B5C187E489838FE48A8321
:102CC0008B8384E48C831D8388E48E8381E68887EC
:102CD0008CE6898784E78A8788E68B874701FBE053
:102CE0008F0E911C5701F50181915F010E946100D7
:102CF000A814B904C1F78AE00E94610082E38983C5
:102D00008EE28A837B8229E72C8383E78D8394E795
:102D10009E8335E63F834DE6488719874BE64A8711
:102D20003B872C8720E72D8721E62E8724E62F87F7
:102D3000188B2FE6298B25E72A8B9B8B8C8B5701D1
:102D4000F50181915F010E946100AC14BD04C1F7DF
:102D500089E60E94610084E60E94610085E60E9487
:102D600061008AE30E9461008091E301811184C1C6
:102D700087E489838FE48A838B8384E48C831D8337
:102D800088E48E8381E688878CE6898784E78A8752
:102D900088E68B874701FBE08F0E911C5701F501F8
:102DA00081915F010E946100A814B904C1F78AE013
:102DB0000E94610083E389838EE28A837B8289E7B4
:102DC0008C8383E78D8384E78E8395E69F839DE6DE
:102DD000988719877A8697E79B8799E69C878D87DE
:102DE00083E68E8788E68F878AE3888B198B470175
:102DF000F1E18F0E911C5701F50181915F010E9455
:102E000061008A149B04C1F78091E40181115EC1C5
:102E100087E489838FE48A838B8384E48C831D8396
:102E200088E48E8381E688878CE6898784E78A87B1
:102E300088E68B874701FBE08F0E911C5701F50157
:102E400081915F010E9461008A149B04C1F78AE0AE
:102E50000E94610084E389838EE28A837B8289E712
:102E60008C8393E79D8324E72E8325E62F832DE62D
:102E7000288719872CE42A8723E62B8724E62C87CA
:102E80001D8724E42E8729E62F87988B90E7998B5E
:102E90009CE69A8B91E69B8B8C8B5701F501819177
:102EA0005F010E946100AC14BD04C1F78091E5018F
:102EB000811137C187E489838FE48A838B8384E41B
:102EC0008C831D8388E48E8381E688878CE68987DE
:102ED00084E78A8788E68B876701FBE0CF0ED11CE9
:102EE000F70181917F010E946100EC14FD04C1F79C
:102EF0008AE00E946100FFEF27E98AE3F150204059
:102F00008040E1F700C0000032E53093040285E61E
:102F10008093050240E7409306025FE65093070264
:102F200022E72093080294E79093090210930A0283
:102F300063E460930B0250930C025DE650930D0224
:102F400040930E024CE640930F0280931002909340
:102F500011028093120244E6409313023093EF0172
:102F60008093F0019093F10195E79093F201209303
:102F7000F3019EE69093F4011093F50129E6209366
:102F8000F6019093F7011093F80196E69093F901FA
:102F90008093FA0197E79093FB017092FC01809374
:102FA000FD0183E68093FE010E945D010E944C01B9
:102FB0000E941A019FEFE7EAF1E69150E040F040ED
:102FC000E1F700C000000C943B0F85E489838EE696
:102FD0008A8397E69B8399E69C838D8395E69E83FF
:102FE0009F8392E798879AE3998795E59A878B87DD
:102FF0009BE69C878D878FE68E8787E78F87188B68
:1030000084E4898B81E68A8B94E79B8B8C8B6701A8
:10301000F60181916F010E946100AC14BD04C1F7FB
:10302000A6CD85E4898382E58A838B839FE49C8394
:103030008D831E838DE48F838FE6888784E689875E
:1030400095E79A872CE62B8785E68C871D8736E6E1
:103050003E8731E63F8739E6388B298B9A8B92E79A
:103060009B8B8C8B5701F50181915F010E94610060
:10307000CA14DB04C1F73FCE85E4898382E58A83E5
:103080008B839FE49C838D831E838DE48F838FE6E7
:10309000888784E6898785E78A879CE69B8785E61B
:1030A0008C871D8726E62E8721E62F8729E6288B29
:1030B000998B92E79B8B8C8B5701F50181915F0176
:1030C0000E946100AC14BD04C1F771CE85E4898310
:1030D00082E58A838B839FE49C838D831E838DE4AA
:1030E0008F838FE6888784E6898795E79A872CE621
:1030F0002B8785E68C871D8736E63E8731E63F873E
:1031000039E6388B298B9A8B92E79B8B8C8B5701F6
:10311000F50181915F010E946100CA14DB04C1F7CF
:1031200096CE85E4898382E58A838B839FE49C83A2
:103130008D831E838DE48F838FE6888784E689875D
:1031400095E79A872CE62B8785E68C8736E63E87BF
:1031500031E63F8739E6388B298B9A8B92E79B8B38
:103160008C8BF70181917F010E946100EC14FD04BA
:10317000C1F7BECE873011F00C943E08033209F03F
:1031800026C982E58093040285E68093050223E741
:10319000209306028093070294E79093080290938D
:1031A000090239E630930A024EE640930B0247E6E5
:1031B00040930C0210930D0270920E0249E7409367
:1031C0000F022093100290931102809312024DE699
:1031D0004093130240E54093EF014CE64093F00129
:1031E0008093F10141E64093F2012093F301809333
:1031F000F4011093F50187E58093F6014093F70100
:103200003093F8019093F9011093FA011093FB01A8
:103210001093FC011093FD011093FE010E944C01DC
:103220000E945D010E94A8008BEC0E9428018EE2A2
:103230000E9437012FEF85EA9EE0215080409040A8
:10324000E1F700C0000084E2EDE6F1E0DE01119656
:1032500001900D928A95E1F78EE20E943701EFEF1F
:10326000F1EE24E0E150F0402040E1F700C0000022
:103270008EE20E943701CE0101967C01F701819117
:103280007F010E9461008EA19FA18E159F05B1F75D
:103290008EE20E9437010E941A019FEFE3ECF9E0F1
:1032A0009150E040F040E1F700C0000084B78D7F0E
:1032B00084BF0C943E088091EE01823011F00C9492
:1032C000AD070E946E010C94AD0780911402882313
:1032D00019F0109214020EEF8091EB01882311F483
:1032E0000C94D8071092EB010EEF0C94D80787FBD3
:1032F000082E062687FD819567FD61950E94851938
:103300000EF4919507FC81950895991B79E004C00E
:10331000991F961708F0961B881F7A95C9F7809514
:103320000895F894FFCF02052D01002D0200000240
:10333000010101013C3E54696D653A20303068302E
:10334000306D303073202D2000456D657267656EDD
:1033500063792070696E20616363657373206861AF
:1033600073206265656E20757365642E0A005B5775
:1033700061726E6E696E675D2053797374656D203E
:10338000686173206265656E206661696C65642E94
:10339000200A005B43617573696F6E5D205379731A
:1033A00074656D20686173206265656E2072657357
:1033B000657465642E0A0050696C6F74204C4F432D
:1033C0004B454420636F636B70697420646F6F7248
:1033D00020202E0A0050696C6F7420554E4C4F43CC
:1033E0004B454420636F636B70697420646F6F7228
:0433F0002E0A0000A1
:107E0000112484B714BE81FFF0D085E080938100F7
:107E100082E08093C00088E18093C10086E0809377
:107E2000C20080E18093C4008EE0C9D0259A86E02C
:107E300020E33CEF91E0309385002093840096BBD3
:107E4000B09BFECF1D9AA8958150A9F7CC24DD24C4
:107E500088248394B5E0AB2EA1E19A2EF3E0BF2EE7
:107E6000A2D0813461F49FD0082FAFD0023811F036
:107E7000013811F484E001C083E08DD089C08234E0
:107E800011F484E103C0853419F485E0A6D080C0E4
:107E9000853579F488D0E82EFF2485D0082F10E0AE
:107EA000102F00270E291F29000F111F8ED06801E7
:107EB0006FC0863521F484E090D080E0DECF843638
:107EC00009F040C070D06FD0082F6DD080E0C81688
:107ED00080E7D80618F4F601B7BEE895C0E0D1E017
:107EE00062D089930C17E1F7F0E0CF16F0E7DF06D8
:107EF00018F0F601B7BEE89568D007B600FCFDCFD4
:107F0000A601A0E0B1E02C9130E011968C91119780
:107F100090E0982F8827822B932B1296FA010C0160
:107F200087BEE89511244E5F5F4FF1E0A038BF0790
:107F300051F7F601A7BEE89507B600FCFDCF97BE46
:107F4000E89526C08437B1F42ED02DD0F82E2BD052
:107F50003CD0F601EF2C8F010F5F1F4F84911BD097
:107F6000EA94F801C1F70894C11CD11CFA94CF0C13
:107F7000D11C0EC0853739F428D08EE10CD085E9AC
:107F80000AD08FE07ACF813511F488E018D01DD067
:107F900080E101D065CF982F8091C00085FFFCCF94
:107FA0009093C60008958091C00087FFFCCF809118
:107FB000C00084FD01C0A8958091C6000895E0E648
:107FC000F0E098E1908380830895EDDF803219F02E
:107FD00088E0F5DFFFCF84E1DECF1F93182FE3DFCA
:107FE0001150E9F7F2DF1F91089580E0E8DFEE27F6
:047FF000FF270994CA
:027FFE00040479
:00000001FF
